:020000040000fa
:080000000002040000000000f2
:020000040000fa
:04000800a80200004a
:020000040000fa
:04000c00a802000046
:020000040000fa
:04001000a802000042
:020000040000fa
:04001400a80200003e
:020000040000fa
:04001800a80200003a
:020000040000fa
:04001c00a802000036
:020000040000fa
:04002000a802000032
:020000040000fa
:04002400a80200002e
:020000040000fa
:04002800a80200002a
:020000040000fa
:04002c00a802000026
:020000040000fa
:04003000a802000022
:020000040000fa
:04003400e0030000e5
:020000040000fa
:04003800a80200001a
:020000040000fa
:04003c00a802000016
:020000040000fa
:04004000a802000012
:020000040000fa
:04004400a80200000e
:020000040000fa
:04004800a80200000a
:020000040000fa
:04004c00a802000006
:020000040000fa
:04005000a802000002
:020000040000fa
:04005400a8020000fe
:020000040000fa
:04005800a8020000fa
:020000040000fa
:04005c007a04000022
:020000040000fa
:04006000a8020000f2
:020000040000fa
:04006400a8020000ee
:020000040000fa
:04006800a8020000ea
:020000040000fa
:04006c00a8020000e6
:020000040000fa
:04007000a8020000e2
:020000040000fa
:04007400a8020000de
:020000040000fa
:04007800a8020000da
:020000040000fa
:04007c00a8020000d6
:020000040000fa
:04008000a8020000d2
:020000040000fa
:04008400a8020000ce
:020000040000fa
:04008800a8020000ca
:020000040000fa
:04008c00a8020000c6
:020000040000fa
:04009000a8020000c2
:020000040000fa
:04009400a8020000be
:020000040000fa
:04009800a8020000ba
:020000040000fa
:04009c00a8020000b6
:020000040000fa
:0400a000a8020000b2
:020000040000fa
:0400a400a8020000ae
:020000040000fa
:0400a800a8020000aa
:020000040000fa
:0400ac00a8020000a6
:020000040000fa
:0400b000a8020000a2
:020000040000fa
:0400b400a80200009e
:020000040000fa
:0400b800a80200009a
:020000040000fa
:0400bc00a802000096
:020000040000fa
:0400c000a802000092
:020000040000fa
:0400c400a80200008e
:020000040000fa
:0400c800a80200008a
:020000040000fa
:0400cc00a802000086
:020000040000fa
:0400d000a802000082
:020000040000fa
:0400d400a80200007e
:020000040000fa
:0400d800a80200007a
:020000040000fa
:0400dc00a802000076
:020000040000fa
:0400e000a802000072
:020000040000fa
:0400e400a80200006e
:020000040000fa
:0400e800a80200006a
:020000040000fa
:0400ec00a802000066
:020000040000fa
:0400f000a802000062
:020000040000fa
:0400f400a80200005e
:020000040000fa
:0400f800a80200005a
:020000040000fa
:0400fc00a802000056
:020000040000fa
:04010000a802000051
:020000040000fa
:04010400a80200004d
:020000040000fa
:04010800a802000049
:020000040000fa
:04010c00a802000045
:020000040000fa
:04011000a802000041
:020000040000fa
:04011400a80200003d
:020000040000fa
:04011800a802000039
:020000040000fa
:04011c00a802000035
:020000040000fa
:04012000a802000031
:020000040000fa
:04012400a80200002d
:020000040000fa
:04012800a802000029
:020000040000fa
:04012c00a802000025
:020000040000fa
:04013000a802000021
:020000040000fa
:04013400a80200001d
:020000040000fa
:04013800a802000019
:020000040000fa
:04013c00a802000015
:020000040000fa
:04014000a802000011
:020000040000fa
:04014400a80200000d
:020000040000fa
:04020800a802000048
:020000040000fa
:04020c00a802000044
:020000040000fa
:04021000a802000040
:020000040000fa
:04021400a80200003c
:020000040000fa
:04021800a802000038
:020000040000fa
:04021c00a802000034
:020000040000fa
:04022000a802000030
:020000040000fa
:04022400a80200002c
:020000040000fa
:04022800a802000028
:020000040000fa
:04022c00a802000024
:020000040000fa
:04023000a802000020
:020000040000fa
:04023400a80200001c
:020000040000fa
:04023800a802000018
:020000040000fa
:04023c00a802000014
:020000040000fa
:04024000a802000010
:020000040000fa
:04024400a80200000c
:020000040000fa
:04024800a802000008
:020000040000fa
:04024c00a802000004
:020000040000fa
:04025000a802000000
:020000040000fa
:04025400a8020000fc
:020000040000fa
:04025800a8020000f8
:020000040000fa
:04025c00a8020000f4
:020000040000fa
:04026000a8020000f0
:020000040000fa
:04026400a8020000ec
:020000040000fa
:04026800a8020000e8
:020000040000fa
:04026c00a8020000e4
:020000040000fa
:04027000a8020000e0
:020000040000fa
:04027400a8020000dc
:020000040000fa
:04027800a8020000d8
:020000040000fa
:04027c00a8020000d4
:020000040000fa
:04028000a8020000d0
:020000040000fa
:04028400a8020000cc
:020000040000fa
:04028800a8020000c8
:020000040000fa
:04028c00a8020000c4
:020000040000fa
:04029000a8020000c0
:020000040000fa
:04029400a8020000bc
:020000040000fa
:04029800a8020000b8
:020000040000fa
:04029c00a8020000b4
:020000040000fa
:0402a000a8020000b0
:020000040000fa
:0402a400a8020000ac
:020000040000fa
:0402a800a8020000a8
:020000040000fa
:0402ac00a8020000a4
:020000040000fa
:0402b000a8020000a0
:020000040000fa
:0402b400a80200009c
:020000040000fa
:0402b800a802000098
:020000040000fa
:0402bc00a802000094
:020000040000fa
:0402c000a802000090
:020000040000fa
:0402c400a80200008c
:020000040000fa
:0402c800a802000088
:020000040000fa
:0402cc00a802000084
:020000040000fa
:0402d000a802000080
:020000040000fa
:0402d400a80200007c
:020000040000fa
:0402d800a802000078
:020000040000fa
:0402dc00a802000074
:020000040000fa
:0402e000a802000070
:020000040000fa
:0402e400a80200006c
:020000040000fa
:0402e800a802000068
:020000040000fa
:0402ec00a802000064
:020000040000fa
:0402f000a802000060
:020000040000fa
:0402f400a80200005c
:020000040000fa
:0402f800a802000058
:020000040000fa
:0402fc00a802000054
:020000040000fa
:04030000a80200004f
:020000040000fa
:04030400a80200004b
:020000040000fa
:04030800a802000047
:020000040000fa
:04030c00a802000043
:020000040000fa
:04031000a80200003f
:020000040000fa
:04031400a80200003b
:020000040000fa
:04031800a802000037
:020000040000fa
:04031c00a802000033
:020000040000fa
:04032000a80200002f
:020000040000fa
:04032400a80200002b
:020000040000fa
:04032800a802000027
:020000040000fa
:04032c00a802000023
:020000040000fa
:04033000a80200001f
:020000040000fa
:04033400a80200001b
:020000040000fa
:04033800a802000017
:020000040000fa
:04033c00a802000013
:020000040000fa
:04034000a80200000f
:020000040000fa
:04034400a80200000b
:020000040000fa
:10040000ef8020000eff27000e0188000000000092
:10041000000020000000e000020032000001200087
:10042000200288000c00070040602000010020002e
:1004300011000700000020000000e0000200320070
:100440000000020000000000f805020000000000ab
:100450000040da000000fe004440a900a000200097
:100460000000e0000300320000002000a00188002e
:100470004440a80000000600910188008000780038
:100480000000eb0015003700e280400032a0b4000d
:100490009101ba00e280400032a0b4009102ba009b
:1004a000e280400032a0b4000002eb00472bde00e7
:1004b000f507b200602ce10004003a000059eb009f
:1004c0008301e900fdff3e00040037006128e100e0
:1004d000010032000082eb000b00070011c3ba00dc
:1004e0001101ba000604e00003003a000200e00037
:1004f000e5ff3a0000000600f607b200960188000a
:1005000082007800f5ff37003159ba008301e90015
:100510000c0032002159ba008301e90008003200c2
:100520000400e00003003a00e280400032a0b40082
:10053000f5ff370011d9ba008301e900faff3a004c
:100540008100e800e180400032a0b4000000060015
:080550000040da000000fe008b
:020000040000fa
:1005580050720000696e000074000000203a00002c
:04056800200000006f
:020000040000fa
:10056c000000fa001005200082010700e11680004f
:10057c0000f02f0000806000e0168800d6a2a900d1
:10058c00cbe2a900d682a900c116800000f02f0092
:10059c0000806000c0168800d2a2a900c7e2a900a2
:1005ac00d282a900e116800000f02f0000806000cc
:1005bc00e0168800e1168000800320000100700026
:1005cc00e0168800d682a8000000000000000000a1
:1005dc0000000000d682a900b001200065010700d0
:1005ec00e116800000f02f0000806000e01688000b
:1005fc00e11680008003200001007000e0168800e6
:10060c00d682a800000000000000000000000000de
:10061c00d682a9002000200064010700e1168000aa
:10062c0000f02f0000806000e0168800e1168000ca
:10063c008003200001007000e0168800d682a8001c
:10064c00000000000000000000000000d682a9009d
:10065c00200020005501070080c3b30006000700ee
:10066c00c0c0b3000400070060c0b3000200070064
:10067c000080fa00000006000200fa00004f78002b
:10068c00e116800000f02f0000806000e01688006a
:10069c009e00fb00e016800001007000e016880050
:1006ac00d6a2a900cbe2a900d682a80000000000c7
:1006bc000000000000000000d682a900b00120005c
:1006cc002c0107000080fa00000006000200fa006e
:1006dc00004f7800d6a2a900cbe2a800e11680005a
:1006ec0000f02f0000806000e01688009e00fb00e8
:1006fc00e016800001007000e0168800d682a80089
:10070c00000000000000000000000000d682a900dc
:10071c00cbe2a900200020002401070020002000cb
:10072c00220107000080fa00000006000400fa0015
:10073c00000f780021479800070037001e00780052
:10074c00104078001e0fe800e0ff07002e409000dc
:10075c000040e900204798002e4090000004e00083
:10076c00f6ff3a000080fa00000006000200fa00d2
:10077c00004f78000c68ef000d68ef0006003700a2
:10078c001e4078006a405000004f78000cc8bf0033
:10079c000040e8000ce8b7001e407800e94f50001c
:1007ac00f7ff3c001e4078000de8b7000080fa000f
:1007bc0000000600809fbe000000fa00218020008f
:1007cc0091407800a0c3b30080cf500004003e00dd
:1007dc0002c8bf000040e80002e8b7001300370071
:1007ec000268ef003180200091407800a0c3b30074
:1007fc0080cf500004003e0003c8bf000040e8005a
:10080c0003e8b700090037000368ef0004c8bf0015
:10081c00f64f500004003e0004c8bf000040e80042
:10082c0004e8b700010037000468ef008460a900f9
:10083c0010c0b30005e8b7000080fa004f00be00fe
:10084c00004006000000fa0010002000301688005e
:10085c002143a800001980000080a1000090a00096
:10086c0000198800001980000050a1000060a00051
:10087c000070a100001988002043a8002343a800a1
:10088c00101980000080a1000090a10010198800b0
:10089c00101980000020a1000030a1000040a10030
:1008ac000050a100101988004227ef0025e3a90091
:1008bc0090c0b30024e3b7002e23ef003003a80050
:1008cc000080eb00501988000080eb006019880054
:1008dc002c03a90085a0a90095a0a80021e3a800dd
:1008ec000080fa00000006003600f800809fbe0071
:1008fc00829fbe00849fbe00869fbe000000fa004f
:10090c00001880000040780000e8b70061802000eb
:10091c009140780080ccb30080cf500013003a0097
:10092c00c02a280051c0b30080ff07000668ef0002
:10093c0000c8bf000080fb00160007000ac8bf00fb
:10094c000043b00061ff07000bc8bf000043b000bc
:10095c005eff07000cc8bf000043b0005bff070040
:10096c000dc8bf000043b00058ff070006c8bf0009
:10097c000040e80006e8b7000080fa004f03be0014
:10098c004f02be004f01be004f00be003600f90002
:10099c00004006000200fa00000f78000500370046
:1009ac0081c12f001e8f40000ac8bf000040e80024
:1009bc000ae8b700703e20009e007800808f50003f
:1009cc00f7ff3e0005003700c1f92f001e8f4000d5
:1009dc000bc8bf000040e8000be8b7003006200051
:1009ec009e007800808f5000f7ff3e000500370016
:1009fc009e0078006a8f50000cc8bf000040e800d1
:100a0c000ce8b7001e007800e90f5000f8ff3e001c
:100a1c001e007800004078000de8b7000080fa0056
:100a2c00000006000000fa0000c8bf000080fb00b8
:100a3c00d8ff07000ac8bf000043b00023ff07001f
:100a4c000bc8bf000043b00020ff07000cc8bf005c
:100a5c000043b0001dff07000dc8bf000043b000ed
:100a6c001aff07000080fa00000006000000fa00e0
:100a7c000421ef008460a9002005800000c0a100c3
:100a8c0000d0a10000e0a000200588009460a80020
:100a9c00200880000040a0000050a0002008880022
:100aac0060812700100888004227ef0005e1a800ac
:100abc000080fa00000006000000fa009008800098
:100acc000040a1000050a000900888000080eb00be
:100adc00700888008500a9009500a90013e1a80002
:100aec000080fa00000006000000fa0004c8bf00f5
:100afc001eff070000ccb300dffe07000cc8bf00d0
:100b0c000043b000f1fe07000dc8bf000043b00069
:100b1c00eefe0700202b280031c0b30003ff0700b6
:100b2c0003c8bf0011ff07000cc8bf000043b00092
:100b3c00e6fe07000dc8bf000043b000e3fe07004f
:100b4c00202b280031c0b300f8fe070002c8bf00fc
:100b5c0006ff07000cc8bf000043b000dbfe070017
:100b6c000dc8bf000043b000d8fe07000080fa009b
:100b7c00000006000200fa00000f78001e00e800da
:100b8c00404088000828ed000808e200050032000b
:100b9c00800c0800010000000000000000000000b4
:100bac00f8ff37000080fa00000006000200fa008f
:100bbc00000f78001e00e800404088000828ed0077
:100bcc000808e20005003200dc0508000100000006
:100bdc000000000000000000f8ff37000080fa0061
:100bec00000006000000fa00a0ff07005cfe0700f2
:0c0bfc0014ff0700b0ff0700ffff3700e8
:020000040000fa
:100c0800000800000e000000000000000c06800034
:020000040000fa
:040c180000000000d8
:00000001FF
