:020000040000fa
:080000000002040000000000f2
:020000040000fa
:04000800a80200004a
:020000040000fa
:04000c00a802000046
:020000040000fa
:04001000a802000042
:020000040000fa
:04001400a80200003e
:020000040000fa
:04001800a80200003a
:020000040000fa
:04001c00a802000036
:020000040000fa
:04002000a802000032
:020000040000fa
:04002400a80200002e
:020000040000fa
:04002800a80200002a
:020000040000fa
:04002c00a802000026
:020000040000fa
:04003000a802000022
:020000040000fa
:04003400da030000eb
:020000040000fa
:04003800a80200001a
:020000040000fa
:04003c00a802000016
:020000040000fa
:04004000a802000012
:020000040000fa
:04004400a80200000e
:020000040000fa
:04004800a80200000a
:020000040000fa
:04004c00a802000006
:020000040000fa
:04005000a802000002
:020000040000fa
:04005400a8020000fe
:020000040000fa
:04005800a8020000fa
:020000040000fa
:04005c008404000018
:020000040000fa
:04006000a8020000f2
:020000040000fa
:04006400a8020000ee
:020000040000fa
:04006800a8020000ea
:020000040000fa
:04006c00a8020000e6
:020000040000fa
:04007000a8020000e2
:020000040000fa
:04007400a8020000de
:020000040000fa
:04007800a8020000da
:020000040000fa
:04007c00a8020000d6
:020000040000fa
:04008000a8020000d2
:020000040000fa
:04008400a8020000ce
:020000040000fa
:04008800a8020000ca
:020000040000fa
:04008c00a8020000c6
:020000040000fa
:04009000a8020000c2
:020000040000fa
:04009400a8020000be
:020000040000fa
:04009800a8020000ba
:020000040000fa
:04009c00a8020000b6
:020000040000fa
:0400a000a8020000b2
:020000040000fa
:0400a400a8020000ae
:020000040000fa
:0400a800a8020000aa
:020000040000fa
:0400ac00a8020000a6
:020000040000fa
:0400b000a8020000a2
:020000040000fa
:0400b400a80200009e
:020000040000fa
:0400b800a80200009a
:020000040000fa
:0400bc00a802000096
:020000040000fa
:0400c000a802000092
:020000040000fa
:0400c400a80200008e
:020000040000fa
:0400c800a80200008a
:020000040000fa
:0400cc00a802000086
:020000040000fa
:0400d000a802000082
:020000040000fa
:0400d400a80200007e
:020000040000fa
:0400d800a80200007a
:020000040000fa
:0400dc00a802000076
:020000040000fa
:0400e000a802000072
:020000040000fa
:0400e400a80200006e
:020000040000fa
:0400e800a80200006a
:020000040000fa
:0400ec00a802000066
:020000040000fa
:0400f000a802000062
:020000040000fa
:0400f400a80200005e
:020000040000fa
:0400f800a80200005a
:020000040000fa
:0400fc00a802000056
:020000040000fa
:04010000a802000051
:020000040000fa
:04010400a80200004d
:020000040000fa
:04010800a802000049
:020000040000fa
:04010c00a802000045
:020000040000fa
:04011000a802000041
:020000040000fa
:04011400a80200003d
:020000040000fa
:04011800a802000039
:020000040000fa
:04011c00a802000035
:020000040000fa
:04012000a802000031
:020000040000fa
:04012400a80200002d
:020000040000fa
:04012800a802000029
:020000040000fa
:04012c00a802000025
:020000040000fa
:04013000a802000021
:020000040000fa
:04013400a80200001d
:020000040000fa
:04013800a802000019
:020000040000fa
:04013c00a802000015
:020000040000fa
:04014000a802000011
:020000040000fa
:04014400a80200000d
:020000040000fa
:04020800a802000048
:020000040000fa
:04020c00a802000044
:020000040000fa
:04021000a802000040
:020000040000fa
:04021400a80200003c
:020000040000fa
:04021800a802000038
:020000040000fa
:04021c00a802000034
:020000040000fa
:04022000a802000030
:020000040000fa
:04022400a80200002c
:020000040000fa
:04022800a802000028
:020000040000fa
:04022c00a802000024
:020000040000fa
:04023000a802000020
:020000040000fa
:04023400a80200001c
:020000040000fa
:04023800a802000018
:020000040000fa
:04023c00a802000014
:020000040000fa
:04024000a802000010
:020000040000fa
:04024400a80200000c
:020000040000fa
:04024800a802000008
:020000040000fa
:04024c00a802000004
:020000040000fa
:04025000a802000000
:020000040000fa
:04025400a8020000fc
:020000040000fa
:04025800a8020000f8
:020000040000fa
:04025c00a8020000f4
:020000040000fa
:04026000a8020000f0
:020000040000fa
:04026400a8020000ec
:020000040000fa
:04026800a8020000e8
:020000040000fa
:04026c00a8020000e4
:020000040000fa
:04027000a8020000e0
:020000040000fa
:04027400a8020000dc
:020000040000fa
:04027800a8020000d8
:020000040000fa
:04027c00a8020000d4
:020000040000fa
:04028000a8020000d0
:020000040000fa
:04028400a8020000cc
:020000040000fa
:04028800a8020000c8
:020000040000fa
:04028c00a8020000c4
:020000040000fa
:04029000a8020000c0
:020000040000fa
:04029400a8020000bc
:020000040000fa
:04029800a8020000b8
:020000040000fa
:04029c00a8020000b4
:020000040000fa
:0402a000a8020000b0
:020000040000fa
:0402a400a8020000ac
:020000040000fa
:0402a800a8020000a8
:020000040000fa
:0402ac00a8020000a4
:020000040000fa
:0402b000a8020000a0
:020000040000fa
:0402b400a80200009c
:020000040000fa
:0402b800a802000098
:020000040000fa
:0402bc00a802000094
:020000040000fa
:0402c000a802000090
:020000040000fa
:0402c400a80200008c
:020000040000fa
:0402c800a802000088
:020000040000fa
:0402cc00a802000084
:020000040000fa
:0402d000a802000080
:020000040000fa
:0402d400a80200007c
:020000040000fa
:0402d800a802000078
:020000040000fa
:0402dc00a802000074
:020000040000fa
:0402e000a802000070
:020000040000fa
:0402e400a80200006c
:020000040000fa
:0402e800a802000068
:020000040000fa
:0402ec00a802000064
:020000040000fa
:0402f000a802000060
:020000040000fa
:0402f400a80200005c
:020000040000fa
:0402f800a802000058
:020000040000fa
:0402fc00a802000054
:020000040000fa
:04030000a80200004f
:020000040000fa
:04030400a80200004b
:020000040000fa
:04030800a802000047
:020000040000fa
:04030c00a802000043
:020000040000fa
:04031000a80200003f
:020000040000fa
:04031400a80200003b
:020000040000fa
:04031800a802000037
:020000040000fa
:04031c00a802000033
:020000040000fa
:04032000a80200002f
:020000040000fa
:04032400a80200002b
:020000040000fa
:04032800a802000027
:020000040000fa
:04032c00a802000023
:020000040000fa
:04033000a80200001f
:020000040000fa
:04033400a80200001b
:020000040000fa
:04033800a802000017
:020000040000fa
:04033c00a802000013
:020000040000fa
:04034000a80200000f
:020000040000fa
:04034400a80200000b
:020000040000fa
:100400000f8120000eff27000e0188000000000071
:10041000000020000000e000020032000001200087
:10042000200288000c000700605e20000100200010
:1004300011000700000020000000e0000200320070
:100440000000020000000000dc05020000000000c7
:100450000040da000000fe004440a90040002000f7
:100460000000e0000300320000002000a00188002e
:100470004440a80000000600910188008000780038
:100480000000eb0015003700e280400032a0b4000d
:100490009101ba00e280400032a0b4009102ba009b
:1004a000e280400032a0b4000002eb00472bde00e7
:1004b000f507b200602ce10004003a000059eb009f
:1004c0008301e900fdff3e00040037006128e100e0
:1004d000010032000082eb000b00070011c3ba00dc
:1004e0001101ba000604e00003003a000200e00037
:1004f000e5ff3a0000000600f607b200960188000a
:1005000082007800f5ff37003159ba008301e90015
:100510000c0032002159ba008301e90008003200c2
:100520000400e00003003a00e280400032a0b40082
:10053000f5ff370011d9ba008301e900faff3a004c
:100540008100e800e180400032a0b4000000060015
:080550000040da000000fe008b
:020000040000fa
:08055800203a00002000000021
:020000040000fa
:100560000000fa001005200077010700e116800066
:1005700000f02f0000806000e0168800d6a2a900dd
:10058000cbe2a900d682a900c116800000f02f009e
:1005900000806000c0168800d2a2a900c7e2a900ae
:1005a000d282a900e116800000f02f0000806000d8
:1005b000e0168800e1168000800320000100700032
:1005c000e0168800d682a8000000000000000000ad
:1005d00000000000d682a900b00120005a010700e7
:1005e000e116800000f02f0000806000e016880017
:1005f000e11680008003200001007000e0168800f2
:10060000d682a800000000000000000000000000ea
:10061000d682a9002000200059010700e1168000c1
:1006200000f02f0000806000e0168800e1168000d6
:100630008003200001007000e0168800d682a80028
:10064000000000000000000000000000d682a900a9
:10065000200020004a01070080c3b3000600070005
:10066000c0c0b3000400070060c0b3000200070070
:100670000080fa00000006000200fa00004f780037
:10068000e116800000f02f0000806000e016880076
:100690009e00fb00e016800001007000e01688005c
:1006a000d6a2a900cbe2a900d682a80000000000d3
:1006b0000000000000000000d682a900b001200068
:1006c000210107000080fa00000006000200fa0085
:1006d000004f7800d6a2a900cbe2a800e116800066
:1006e00000f02f0000806000e01688009e00fb00f4
:1006f000e016800001007000e0168800d682a80095
:10070000000000000000000000000000d682a900e8
:10071000cbe2a900200020001901070020002000e2
:10072000170107000080fa00000006000400fa002c
:10073000000f780021479800070037001e0078005e
:10074000104078001e0fe800e0ff07002e409000e8
:100750000040e900204798002e4090000004e0008f
:10076000f6ff3a000080fa00000006000200fa00de
:10077000004f78000e68ef000f68ef0006003700aa
:100780001e4078006a405000004f78000ec8bf003d
:100790000040e8000ee8b7001e407800e94f500026
:1007a000f7ff3c001e4078000fe8b7000080fa0019
:1007b00000000600809fbe000000fa00518020006b
:1007c00091407800a0c3b30080cf500004003e00e9
:1007d00005c8bf000040e80005e8b7001300370077
:1007e0000568ef006180200091407800a0c3b3004d
:1007f00080cf500004003e0006c8bf000040e80063
:1008000006e8b700090037000668ef0007c8bf0018
:10081000f64f500004003e0007c8bf000040e8004b
:1008200007e8b700010037000768ef008460a900ff
:1008300010c0b30008e8b7000080fa004f00be0007
:10084000004006000000fa0000602000001688004a
:1008500010002000301688002143a80000198000f5
:100860000080a1000090a1000019880000198000fc
:100870000050a1000060a0000070a10000198800d5
:100880002043a9002343a800101980000080a10084
:100890000090a100101988001019800000d0a0005d
:1008a00000e0a00000f0a1001019880010198000dd
:1008b0000020a1000030a1000040a1000050a100d4
:1008c000101988004227ef0025e3a90090c0b3006b
:1008d00024e3b7002e23ef003003a8000080eb00d4
:1008e000501988000080eb00601988002c03a900d3
:1008f00085a0a90095a0a80021e3a8002023a800b6
:100900000080fa0000000600809fbe000000fa0090
:1009100000198000610060000000e0000600320065
:10092000001880008000eb00004088001140880023
:100930002023a80008003700001980006100600033
:100940000000e00004003a005000200001002000f8
:1009500000408800114088000080fa004f00be006f
:10096000004006000200fa00000f78000500370082
:1009700081c12f001e8f40000cc8bf000040e8005e
:100980000ce8b700703e20009e007800808f500079
:10099000f7ff3e0005003700c1f92f001e8f400011
:1009a0000dc8bf000040e8000de8b7003006200089
:1009b0009e007800808f5000f7ff3e000500370052
:1009c0009e0078006a8f50000ec8bf000040e8000b
:1009d0000ee8b7001e007800e90f5000f8ff3e0057
:1009e0001e007800004078000fe8b7000080fa0091
:1009f000000006000000fa00004080001140800066
:100a000000007800d7ff07000cc8bf000043b0000b
:100a10002eff07000dc8bf000043b0002bff0700ea
:100a20000ec8bf000043b00028ff07000fc8bf007a
:100a30000043b00025ff07000080fa000000060018
:100a40000000fa000421ef008460a9002005800066
:100a500000c0a10000d0a10000e0a0002005880097
:100a60009460a800200880000040a0000050a00072
:100a70002008880060812700100888004227ef00c6
:100a800005e1a8000080fa00000006000000fa005e
:100a9000900880000040a1000050a000900888004d
:100aa0000080eb00700888008500a9009500a9006f
:100ab00013e1a8000080fa00000006000000fa0020
:100ac00007c8bf0029ff070000ccb300eafe0700fb
:100ad0000ec8bf000043b000fcfe07000fc8bf00f7
:100ae0000043b000f9fe0700c02a280031c0b3005f
:100af0000eff070006c8bf001cff07000ec8bf009e
:100b00000043b000f1fe07000fc8bf000043b00073
:100b1000eefe0700c02a280031c0b30003ff070023
:100b200005c8bf0011ff07000ec8bf000043b0009a
:100b3000e6fe07000fc8bf000043b000e3fe070059
:100b40000080fa00000006000200fa00000f7800a2
:100b50001e00e800504088000a28ed000a08e20064
:100b600005003200800c08000100000000000000b9
:100b700000000000f8ff37000080fa0000000600c7
:100b80000200fa00000f78001e00e80050408800c4
:100b90000a28ed000a08e20005003200dc05080022
:100ba000010000000000000000000000f8ff370016
:100bb0000080fa00000006000000fa0068fe07004e
:0c0bc00020ff0700b1ff0700ffff370017
:020000040000fa
:100bcc00000800001000000000000000ee0580008e
:020000040000fa
:040bdc000000000015
:00000001FF
